:020000040800F2
:10000000FFFF012019190008051A0008091A000845
:100010000D1A0008111A0008151A00080000000047
:10002000000000000000000000000000191A000895
:100030001D1A000800000000211A0008251A0008F7
:100040005D1900085D1900085D1900085D190008B8
:100050005D1900085D190008291A00085D190008DB
:100060005D1900085D1900085D1900081D3F0008B2
:100070005D1900085D190008A51E00085D1900083B
:100080005D1900085D1900085D1900085D19000878
:100090005D1900085D1900085D1900085D19000868
:1000A0005D1900085D1900085D1900085D19000858
:1000B0005D1900085D1900085D1900085D19000848
:1000C0005D1900085D1900085D1900085D19000838
:1000D0005D1900085D1900085D1900085D19000828
:1000E0005D1900085D190008391A00085D1900083B
:1000F0005D1900085D1900085D190008CD3E000873
:100100005D1900085D1900085D1900086D3F0008C1
:100110005D1900085D1900085D1900085D190008E7
:100120005D1900085D1900085D1900085D190008D7
:100130005D1900085D1900085D1900085D190008C7
:100140005D1900085D1900085D190008751A00089E
:100150005D1900085D1900085D1900085D190008A7
:100160005D1900085D1900085D1900085D19000897
:100170005D1900085D1900085D1900085D19000887
:080180005D1900085D1900087B
:100188002DE9F04F0646DFF82C0DDFF82C1D016035
:10019800DFF8281D0068884236D1DFF8240D016099
:1001A80006F110070020F860B86078603860B86120
:1001B8007861386174682046002101F06FFB24D013
:1001C8004FF08740214600F083FE01F099F805467C
:1001D8008946204601F094F804468846308801F0A4
:1001E8006DF8DFF8E02CDFF8E03C01F00BFA22466E
:1001F800434600F027FF02460B462846494601F0D1
:1002080001FA01F0E7FA01E0FEE70020B883B468DC
:100218002046002101F042FB22D03588280201F057
:100228005DF882468B46204601F06AF802460B4686
:10023800DFF8900CDFF8901C01F0BAF80446884605
:10024800284601F03BF82246434600F0FBFE0246F2
:100258000B465046594601F0D5F901F0BBFA00E0CB
:100268000020F88330884FF47A7190FBF1F03884DD
:10027800BDE8F08F2DE9FE4F96B0DFF8441C096801
:10028800DFF8382C914200D0FEE719461031009172
:100298000969009A52690792009A92690392009A32
:1002A800D2F8009052680692009A9268009BDB6828
:1002B800189CA4890194009CA48B0594009CE48B51
:1002C800089400244FF48075059EAD1B0D95019D83
:1002D800C5EBC5050C95019D05EB450675000B950D
:1002E800019D05EB85050A95019D05EB45050995D9
:1002F800009D2D8C012DC0F21D810578DFF8C06BA3
:10030800AD19069E95F80472BE190E9695F804610B
:1003180009EB46072D79019E365CDFF8A4CB6644CD
:1003280096F804C2674402970F9796F8047105EB94
:1003380047053679019F10F81770DFF884CB6744BA
:1003480097F804C26544109597F804C106EB4C066B
:100358003F79DDF824C01CF800C0DFF864EBE64400
:100368009EF804C2664411969EF804C107EB4C0738
:100378009EF804E0DDF804C010F82CC0DFF8408BCC
:10038800E04498F804C26744129798F804C10EEB49
:100398004C0C98F80480DDF828E01EF800E0DFF83F
:1003A800209BF14499F804E2E644CDF84CE099F832
:1003B80004C108EB4C0C99F804A0DDF82C8018F85F
:1003C8000080DFF8FC9AC14499F80482E044CDF833
:1003D800508099F804C10AEB4C0A99F80490DDF8AA
:1003E80030C01CF800C0DFF8D8BAE344CDF810B02C
:1003F8009BF804C2E244CDF854A0DDF810C09CF884
:1004080004C109EB4C09CDF81890DDF810C09CF830
:100418000490DDF838C0CCEBCC0B03EB8B03DDF894
:1004280008C04FF0150B0BFB0C33C5EB051C6344E0
:1004380006EB860C03EB4C0307EB470C03EB4C0372
:100448000EEB4E0C634408EB030C0E9B03EBC3034B
:1004580002EB8302029B4FF02A0B0BFB03222E2395
:1004680003FB0522BB1903EB430302EB03122E2304
:1004780003FB0E220BFB08220AEBCA0302EB8303E1
:10048800029A05EB4505AA1806EB460502EB45025C
:1004980007EB870502EB4502CEEB0E15AA181525CA
:1004A80005FB0822CAEBCA0502EB8502ACF500354C
:1004B800089E56B1089E6918079FC91B7143CE1143
:1004C80001EB1661091207950D46059E66B10D9E52
:1004D800039FDDF814C005FB0CF507FB0655EE116C
:1004E80005EB16652D120395BDF85C607543012D6B
:1004F800ACBF0835083DEE1005EB16752D11DFF879
:10050800CC69B542B8BF354605DB47F6BD76B5427E
:10051800A8BF47F6BC75189EF6896643169F27F84C
:100528001650019D00EBC500641C009D2D8CAC424B
:10053800FFF6E3AE0098C0F800900098069C44606F
:10054800009882600098C36000980161009807993C
:1005580041610098039981610098008C19B0BDE849
:10056800F08F2DE9FE4F98B0DFF854190968DFF8CD
:100578004C29914200D0FEE71946103100910969D3
:10058800009A52690792009A92690392009AD2F8E7
:10059800009052680692009A9268009BDB681A9C49
:1005A800A4890194009CA48B0594009CE48B089476
:1005B80000244FF48075059EAD1B0D95019DC5EB7C
:1005C800C5050C95019D05EB450675000B95019D2C
:1005D80005EB85050A95019D05EB45050995009DE7
:1005E8002D8C012DC0F21D810578DFF8D468AD1976
:1005F800069E95F80472BE190E9695F8046109EBEB
:1006080046072D79019E365CDFF8B4C8664496F833
:1006180004C2674402970F9796F8047105EB4705E3
:100628003679019F10F81770DFF894C8674497F877
:1006380004C26544109597F804C106EB4C063F794F
:10064800DDF824C01CF800C0DFF874E8E6449EF822
:1006580004C2664411969EF804C107EB4C079EF845
:1006680004E0DDF804C010F82CC0DFF85488E0443A
:1006780098F804C26744129798F804C10EEB4C0C22
:1006880098F80480DDF828E01EF800E0DFF83098DC
:10069800F14499F804E2E644CDF84CE099F804C135
:1006A80008EB4C0C99F804A0DDF82C8018F80080B1
:1006B800DFF80C98C14499F80482E044CDF85080E2
:1006C80099F804C10AEB4C0A99F80490DDF830C097
:1006D8001CF800C0DFF8E8B7E344CDF810B09BF889
:1006E80004C2E244CDF854A0DDF810C09CF804C15F
:1006F80009EB4C09CDF81890DDF810C09CF804906F
:10070800DDF838C0CCEBCC0B03EB8B03DDF808C06D
:100718004FF0150B0BFB0C33C5EB051C634406EBC4
:10072800860C03EB4C0307EB470C03EB4C030EEB77
:100738004E0C634408EB030C0E9B03EBC30302EB64
:100748008302029B4FF02A0B0BFB03222E2303FB91
:100758000522BB1903EB430302EB03122E2303FB11
:100768000E220BFB08220AEBCA0302EB8303029A50
:1007780005EB4505AA1806EB460502EB450207EB13
:10078800870502EB4502CEEB0E15AA18152505FBC9
:100798000822CAEBCA0502EB8502ACF50035089EB3
:1007A80056B1089E6918079FC91B7143CE1101EB0A
:1007B8001661091207950D46059E66B10D9E039FA9
:1007C800DDF814C005FB0CF507FB0655EE1105EB2B
:1007D80016652D120395BDF864607543012DACBFF5
:1007E8000835083DEE1005EB16752D11DFF8DC66AF
:1007F800B542B8BF354605DB47F6BD76B542A8BF5A
:1008080047F6BC751A9EF6896643189F27F8165056
:10081800019D00EBC500641C009D2D8CAC42FFF6C9
:10082800E3AE0098C0F800900098069C44600098D9
:1008380082600098C360009801610098079941613F
:100848000098039981610098008C1BB0BDE8F08F77
:100858002DE9FE4F96B0DFF868160968DFF85C26C8
:10086800914200D0FEE71946103100910969009ABB
:1008780052690792009A92690392009AD2F80090FE
:1008880052680692009A9268009BDB68189CA489BB
:100898000194009CA48B0594009CE48B089400248C
:1008A8004FF48075059EAD1B0D95019DC5EBC505E3
:1008B8000C95019D05EB450675000B95019D05EB13
:1008C80085050A95019D05EB45050995009D2D8C2B
:1008D800012DC0F21F810578DFF8E465AD19069E89
:1008E8002F79BE190E9695F8046109EB460795F81D
:1008F8000452019E365CDFF8C8C5664496F804C009
:10090800674402970F9796F8047105EB470596F828
:100918000462019F10F81770DFF8A4C5674497F8C0
:1009280004C06544109597F804C106EB4C0697F887
:100938000472DDF824C01CF800C0DFF884E5E64442
:100948009EF804C0664411969EF804C107EB4C0754
:100958009EF804E2DDF804C010F82CC0DFF86085CA
:10096800E04498F804C06744129798F804C10EEB65
:100978004C0C98F80482DDF828E01EF800E0DFF857
:100988004095F14499F804E0E644CDF84CE099F834
:1009980004C108EB4C0C99F804A2DDF82C8018F877
:1009A8000080DFF81C95C14499F80480E044CDF834
:1009B800508099F804C10AEB4C0A99F80492DDF8C2
:1009C80030C01CF800C0DFF8F8B4E344CDF810B02C
:1009D8009BF804C0E244CDF854A0DDF810C09CF8A0
:1009E80004C109EB4C09CDF81890DDF810C09CF84B
:1009F8000492DDF838C0CCEBCC0B03EB8B03DDF8AD
:100A080008C04FF0150B0BFB0C33C5EB051C6344FA
:100A180006EB860C03EB4C0307EB470C03EB4C038C
:100A28000EEB4E0C634408EB030C0E9B03EBC30365
:100A380002EB8302029B4FF02A0B0BFB03222E23AF
:100A480003FB0522BB1903EB430302EB03122E231E
:100A580003FB0E220BFB08220AEBCA0302EB8303FB
:100A6800029A05EB4505AA1806EB460502EB450276
:100A780007EB870502EB4502CEEB0E15AA181525E4
:100A880005FB0822CAEBCA0502EB8502ACF5003566
:100A9800089E56B1089E6918079FC91B7143CE115D
:100AA80001EB1661091207950D46059E66B10D9E6C
:100AB800039FDDF814C005FB0CF507FB0655EE1186
:100AC80005EB16652D120395BDF85C607543012D85
:100AD800ACBF0835083DEE1005EB16752D11DFF893
:100AE800EC63B542B8BF354605DB47F6BD76B5427F
:100AF800A8BF47F6BC75189EF6896643169F27F867
:100B08001650019D00EBC500641C009D2D8CAC4265
:100B1800FFF6E1AE0098C0F800900098069C44608B
:100B2800009882600098C360009801610098079956
:100B380041610098039981610098008C19B0BDE863
:100B4800F08F2DE9FE4F9EB0DD490968DB4A9142DE
:100B580000D0FEE71946103100910969009A5269E0
:100B68000A92009A92690492009A12680992009A6D
:100B780052680892009A9268009BDB68209CA489BE
:100B88000194009CA48B0794009CE48B0B94002494
:100B9800019D05EB8506750013954FF48075079E3A
:100BA800AD1B1295019D05EBC5051195019DC5EB82
:100BB800C5051095019D05EB450675000F95019D2E
:100BC80005EB85050E95019D05EB45050D95009DE9
:100BD8002D8C012DC0F257810578B94EAD19089EAC
:100BE8002F793E441496099E95F8047106EB470B3D
:100BF80095F80452019E365CB14F3E4437795F4404
:100C08000397159796F8047105EB470596F8046263
:100C1800DDF804B010F81BB0A94F5F4497F804C082
:100C28006544169597F804C106EB4C0697F80472CC
:100C3800DDF834C01CF800C0DFF884E2E6449EF812
:100C480004C0664417969EF804C107EB4C0B9EF847
:100C58000472DDF804C010F82CC0DFF86482E044A8
:100C680098F804C0E344CDF860B098F804C107EBE5
:100C78004C0798F80482DDF838E01EF800E0DFF849
:100C88004092F14499F804E0BE44CDF864E099F844
:100C9800047108EB470799F804A2DDF83C8018F8BE
:100CA8000080DFF81C92C14499F80480B844CDF85C
:100CB800688099F804710AEB470C99F804A2109F10
:100CC80017F800907E4F4F4497F80490E144CDF810
:100CD8006C9097F804C10AEB4C0A97F804720697CF
:100CE800DDF804C010F83CC0754F674402973F799F
:100CF800BA44CDF870A0DDF818C0029F97F80471C7
:100D08000CEB47070C97DDF808C09CF804720697AF
:100D1800119F17F800C06A4F67440297DDF830C08A
:100D28003F79674405971D97DDF818C0029F97F82B
:100D380004710CEB47070897DDF808C09CF80472AB
:100D48000997DDF850C02D2707FB0C33DDF80CC0E0
:100D58000CEBCC0703EB8703C5EBC50C03EB8C034B
:100D6800152707FB0633CBEB0B1C63440EEB8E07F2
:100D780003EB470308EB480703EB470309EB490775
:100D88003B440AEB030C149B372707FB0322039B06
:100D9800C3EB83139A18452303FB0522492303FB5E
:100DA80006220EEB0B034B2707FB0322492303FB09
:100DB8000822452303FB0922CAEB8A139A18059BCC
:100DC800372707FB0323039A05EB4505AA1806EB0B
:100DD800460502EB45020BEB8B0502EB4502CEEB19
:100DE8000E15AA18152505FB0822C9EBC90502EB43
:100DF80085020AEBCA0502EB8502059D2D2606FB36
:100E08000522ACF57A350B9E56B10B9E69180A9FE0
:100E1800C91B7143CE1101EB166109120A950D46E3
:100E2800079E66B1129E049FDDF81CC005FB0CF5F9
:100E380007FB0655EE1105EB16652D120495BDF856
:100E48007C607543012DACBF1035103D2E1105EBAC
:100E5800D6656D111D4EB542B8BF354605DB47F660
:100E6800BD76B542A8BF47F6BC75209EF689664395
:100E78001E9F27F81650139D2818641C009D2D8C62
:100E8800AC42FFF6A9AE0098099C04600098089C43
:100E98004460009882600098C360009801610098DF
:100EA8000A9941610098049981610098008C21B0E9
:100EB800BDE8F08F00300240C2A507F4CDB5E8B513
:100EC800000000201F85EB51B81E19404480FFFF29
:100ED8004FF0FF0C1CEAD0521EBF1CEAD15392EA15
:100EE8000C0F93EA0C0F6FD01A4480EA010C4002F1
:100EF80018BF5FEA41211ED04FF0006343EA50104B
:100F080043EA5111A0FB01310CF00040B1F5000F8C
:100F18003EBF490041EAD3715B0040EA010062F13B
:100F28007F02FD2A1DD8B3F1004F40EBC25008BF25
:100F380020F00100704790F0000F0CF0004C08BF43
:100F480049024CEA502040EA51207F3AC2BFD2F110
:100F5800FF0340EAC250704740F400004FF000031E
:100F6800013A5DDC12F1190FDCBF00F00040704758
:100F7800C2F10002410021FA02F1C2F1200200FA96
:100F880002FC5FEA310040F1000053EA4C0308BF5D
:100F980020EADC70704792F0000F00F0004C02BFAE
:100FA800400010F4000F013AF9D040EA0C0093F029
:100FB800000F01F0004C02BF490011F4000F013B83
:100FC800F9D041EA0C018FE70CEAD15392EA0C0FF1
:100FD80018BF93EA0C0F0AD030F0004C18BF31F05C
:100FE800004CD8D180EA010000F00040704790F032
:100FF800000F17BF90F0004F084691F0000F91F0D6
:10100800004F14D092EA0C0F01D142020FD193EA9B
:101018000C0F03D14B0218BF084608D180EA010023
:1010280000F0004040F0FE4040F40000704740F0FF
:10103800FE4040F44000704781F0004102E000BFEC
:1010480083F0004330B54FEA41044FEA430594EA80
:10105800050F08BF90EA020F1FBF54EA000C55EABB
:10106800020C7FEA645C7FEA655C00F0E2804FEA8C
:101078005454D4EB5555B8BF6D420CDD2C4480EA6E
:10108800020281EA030382EA000083EA010180EA9E
:10109800020281EA0303362D88BF30BD11F0004FEC
:1010A8004FEA01314FF4801C4CEA113102D0404222
:1010B80061EB410113F0004F4FEA03334CEA13335D
:1010C80002D0524263EB430394EA050F00F0A78075
:1010D800A4F10104D5F1200E0DDB02FA0EFC22FA70
:1010E80005F2801841F1000103FA0EF2801843FA64
:1010F80005F359410EE0A5F120050EF1200E012A55
:1011080003FA0EFC28BF4CF0020C43FA05F3C01892
:1011180051EBE37101F0004507D54FF0000EDCF10B
:10112800000C7EEB00006EEB0101B1F5801F1BD3B4
:10113800B1F5001F0CD349085FEA30004FEA3C0CB8
:1011480004F101044FEA445212F5800F80F09A80AE
:10115800BCF1004F08BF5FEA500C50F1000041EBB2
:10116800045141EA050130BD5FEA4C0C404141EBB6
:101178000101013C28BFB1F5801FE9D291F0000FB1
:1011880004BF01460020B1FA81F308BF2033A3F160
:101198000B03B3F120020CDA0C3208DD02F1140C57
:1011A800C2F10C0201FA0CF021FA02F10CE002F192
:1011B8001402D8BFC2F1200C01FA02F120FA0CFC8B
:1011C800DCBF41EA0C019040E41AA2BF01EB0451D4
:1011D800294330BD6FEA04041F3C1CDA0C340EDCD2
:1011E80004F11404C4F1200220FA04F001FA02F315
:1011F80040EA030021FA04F345EA030130BDC4F1D3
:101208000C04C4F1200220FA02F001FA04F340EAC7
:101218000300294630BD21FA04F0294630BD94F078
:10122800000F83F4801306BF81F480110134013D5F
:101238004EE77FEA645C18BF7FEA655C29D094EAD0
:10124800050F08BF90EA020F05D054EA000C04BF4E
:101258001946104630BD91EA030F1EBF0021002039
:1012680030BD5FEA545C05D14000494128BF41F0D8
:10127800004130BD14F580043CBF01F5801130BD3C
:1012880001F0004545F0FE4141F470014FF00000C7
:1012980030BD7FEA645C1ABF194610467FEA655C78
:1012A8001CBF0B46024650EA013406BF52EA03351A
:1012B80091EA030F41F4002130BD00BF90F0000F08
:1012C80004BF0021704730B54FF4806404F1320444
:1012D8004FF000054FF0000150E700BF90F0000FFD
:1012E80004BF0021704730B54FF4806404F1320424
:1012F80010F0004548BF40424FF000013EE700BFF4
:1013080042004FEAE2014FEA31014FEA02701FBF83
:1013180012F07F4393F07F4F81F06051704732F0B5
:101328007F4208BF704793F07F4F04BF41F400210C
:10133800704730B54FF4607401F0004521F000416A
:101348001CE700BF50EA010208BF704730B54FF0F4
:1013580000050AE050EA010208BF704730B511F0F5
:10136800004502D5404261EB41014FF4806404F12D
:1013780032045FEA915C3FF4D8AE4FF003025FEAB3
:10138800DC0C18BF03325FEADC0C18BF033202EB37
:10139800DC02C2F1200300FA03FC20FA02F001FA91
:1013A80003FE40EA0E0021FA02F11444BDE600BF34
:1013B80070B54FF0FF0C4CF4E06C1CEA11541DBFE3
:1013C8001CEA135594EA0C0F95EA0C0F00F0DEF8AE
:1013D8002C4481EA030621EA4C5123EA4C5350EA93
:1013E800013518BF52EA033541F4801143F48013E4
:1013F80038D0A0FB02CE4FF00005E1FB02E506F075
:101408000042E0FB03E54FF00006E1FB03569CF0C9
:10141800000F18BF4EF0010EA4F1FF04B6F5007FCF
:1014280064F5407404D25FEA4E0E6D4146EB060641
:1014380042EAC62141EA55514FEAC52040EA5E50CA
:101448004FEACE2EB4F1FD0C88BFBCF5E06F1ED874
:10145800BEF1004F08BF5FEA500E50F1000041EBAB
:10146800045170BD06F0004646EA010140EA020058
:1014780081EA0301B4EB5C04C2BFD4EB0C0541EA7A
:10148800045170BD41F480114FF0000E013C00F38F
:10149800AB8014F1360FDEBF002001F0004170BDB3
:1014A800C4F10004203C35DA0C341BDC04F11404CC
:1014B800C4F1200500FA05F320FA04F001FA05F258
:1014C80040EA020001F0004221F0004110EBD37025
:1014D80021FA04F642EB06015EEA430E08BF20EA51
:1014E800D37070BDC4F10C04C4F1200500FA04F3F4
:1014F80020FA05F001FA04F240EA020001F0004186
:1015080010EBD37041F100015EEA430E08BF20EAF8
:10151800D37070BDC4F1200500FA05F24EEA020E40
:1015280020FA04F301FA05F243EA020321FA04F06F
:1015380001F0004121FA04F220EA020000EBD37026
:101548005EEA430E08BF20EAD37070BD94F0000F26
:101558000FD101F00046400041EB010111F4801F5A
:1015680008BF013CF7D041EA060195F0000F18BF0B
:10157800704703F00046520043EB030313F4801F47
:1015880008BF013DF7D043EA0603704794EA0C0F01
:101598000CEA135518BF95EA0C0F0CD050EA410617
:1015A80018BF52EA4306D1D181EA030101F0004194
:1015B8004FF0000070BD50EA410606BF10461946BC
:1015C80052EA430619D094EA0C0F02D150EA0136C8
:1015D80013D195EA0C0F05D152EA03361CBF104609
:1015E80019460AD181EA030101F0004141F0FE41A8
:1015F80041F470014FF0000070BD41F0FE4141F42C
:10160800780170BD70B54FF0FF0C4CF4E06C1CEA2B
:1016180011541DBF1CEA135594EA0C0F95EA0C0FE0
:1016280000F0A7F8A4EB050481EA030E52EA03359B
:101638004FEA013100F088804FEA03334FF08055BC
:1016480045EA131343EA12634FEA022245EA1115E9
:1016580045EA10654FEA00260EF000419D4208BF9A
:10166800964244F1FD0404F5407402D25B084FEA47
:101678003202B61A65EB03055B084FEA32024FF4F3
:1016880080104FF4002CB6EB020E75EB030E22BF50
:10169800B61A754640EA0C005B084FEA3202B6EB10
:1016A800020E75EB030E22BFB61A754640EA5C00BF
:1016B8005B084FEA3202B6EB020E75EB030E22BF4F
:1016C800B61A754640EA9C005B084FEA3202B6EB50
:1016D800020E75EB030E22BFB61A754640EADC000F
:1016E80055EA060E18D04FEA051545EA16754FEA71
:1016F80006164FEAC30343EA52734FEAC2025FEA8F
:101708001C1CC0D111F4801F0BD141EA00014FF01D
:1017180000004FF0004CB6E711F4801F04BF0143EE
:101728000020B4F1FD0C88BFBCF5E06F3FF6AFAE0A
:10173800B5EB030C04BFB6EB020C5FEA500C50F19A
:10174800000041EB045170BD0EF0004E4EEA11311D
:1017580014EB5C04C2BFD4EB0C0541EA045170BD24
:1017680041F480114FF0000E013C90E645EA060E68
:101778008DE60CEA135594EA0C0F08BF95EA0C0F96
:101788003FF43BAF94EA0C0F0AD150EA01347FF4DE
:1017980034AF95EA0C0F7FF425AF104619462CE7B5
:1017A80095EA0C0F06D152EA03353FF4FDAE104618
:1017B800194622E750EA410618BF52EA43067FF469
:1017C800C5AE50EA41047FF40DAF52EA43057FF4F9
:1017D800EBAE12E74FEA410212F5001215D211D50D
:1017E8006FF47873B3EB625212D94FEAC12343F016
:1017F800004343EA505311F0004F23FA02F018BF98
:10180800404270474FF00000704750EA013005D160
:1018180011F0004008BF6FF0004070474FF0000023
:10182800704700BF4FF0FF3C06E000BF4FF0010CCF
:1018380002E000BF4FF0010C4DF804CD4FEA400222
:101848004FEA41037FEA226C18BF7FEA236C11D06C
:1018580001B052EA530C18BF90EA010F58BFB2EB1F
:10186800030088BFC81738BF6FEAE17018BF40F09F
:10187800010070477FEA226C02D15FEA402C05D153
:101888007FEA236CE4D15FEA412CE1D05DF8040BD8
:10189800704700BF844608466146FFE70FB5FFF76B
:1018A800C9FF002848BF10F1000F0FBD4DF808ED23
:1018B800FFF7F4FF0CBF012000205DF808FB00BF14
:1018C8004DF808EDFFF7EAFF34BF012000205DF86E
:1018D80008FB00BF4DF808EDFFF7E0FF94BF0120BB
:1018E80000205DF808FB00BF4DF808EDFFF7D2FFB8
:1018F80094BF012000205DF808FB00BF4DF808EDFB
:10190800FFF7C8FF34BF012000205DF808FB00BFC7
:10191800002103E00A4B5B584350043109480A4B45
:1019280042189A42F6D3094A02E0002342F8043BDF
:10193800074B9A42F9D300F09FF800F00DF8704772
:101948006057000800000020680400206804002098
:101958005C0E0020FEE7000000B5002187B00846B5
:1019680002F072F8002002F029F8012002F026F8AF
:10197800022002F023F8032002F020F802A803F066
:1019880029FD094C4FF47A525621022002F0F8FC46
:10199800064B074A07480094012102F0BBFE00F0FD
:1019A800C9FA00BFFDE700BF380300205803002034
:1019B8001C0300206804002000BF0C4B1B78012B7F
:1019C80003D00B48402102F007BA0A4A0A4800230C
:1019D800C3F34601013330F8111022F8021F202BFF
:1019E800F6D10348402102F0F7B900BF54030020A4
:1019F800600A00205E0A0020B80C0020704700BF73
:101A0800FEE700BFFEE700BFFEE700BFFEE700BF3E
:101A1800704700BF704700BF704700BF704700BFE6
:101A2800024B0120187003F03DBB00BF5C0A002088
:101A380010B50C4CA37A2BB9BDE810404FF48020A8
:101A480003F030BB084A136923F00603136100F062
:101A580013F8204601F09AF9BDE810404FF48020B1
:101A680003F020BB6804002000ED00E0014801F00D
:101A78008DBC00BF680400203C4A3D481368002123
:101A880043F0010313609160136823F0847323F417
:101A9800803313605060136882B023F4802313608E
:101AA800D16000910191136843F48033136003E01F
:101AB800009BB3F5A06F09D0136803F400330193BA
:101AC800009B01330093019B002BF1D0274B1B682F
:101AD80013F4003318BF01230193019B012B14D089
:101AE800224A2449936823F400039360C2F88410BF
:101AF800136843F08063136013681B01FCD51E4B09
:101B08004FF000629A6002B07047184B1B491A6C7C
:101B18001B4842F080521A640A6842F480420A6004
:101B28009A689A609A6842F400429A609A6842F405
:101B3800A0529A6058601A6842F080721A601A6857
:101B48009201FCD50F4A40F205611160996821F0B5
:101B580003019960996841F00201A2F580629960D9
:101B6800936803F00C03082BFAD1B9E70038024058
:101B7800103000248040003000ED00E0007000408C
:101B880008544007003C024030B501211F4C83B087
:101B9800084603F067FC40F20233694620464FF4DA
:101BA800C052CDE9002303F083FA20460A220B2114
:101BB80003F0CEFA20460A220C2103F0C9FA144B8E
:101BC8004FF4007269462046CDE9002303F070FA0D
:101BD8004FF48063012569460093204640F20313C1
:101BE800ADF805308DF8075003F062FA0A22114665
:101BF800204603F0ADFA29464FF4804003F056FC26
:101C08002946802003F03AFC03B030BD00000240B2
:101C18000003010000B54FF4C06083B003F044F83E
:101C2800034B019301A803F049F803B05DF804FBE6
:101C380043010301704700BF704700BF12230148EA
:101C48000B80704704030020042301480B80704771
:101C58001803002010B5044C04480A46214602F037
:101C6800F9FF204610BD00BF840D0020D0560008A3
:101C78000A4608B5054920B9054802F0EBFF0348B4
:101C880008BD044802F0E6FF004808BD840D0020A6
:101C9800D8560008FC5600080A4608B5054920B978
:101CA800054802F0D7FF034808BD044802F0D2FFF8
:101CB800004808BD840D0020085700081857000880
:101CC80010B5044C04480A46214602F0C3FF2046DA
:101CD80010BD00BF840D00202857000810B5044C23
:101CE80004480A46214602F0B5FF204610BD00BF51
:101CF800840D002038570008704700BF704700BFA8
:101D0800704700BF704700BF704700BF704700BFF3
:101D1800704700BF000000005549564B0A6BF0B5EC
:101D280042F480520A63544A9A604FF0011293B009
:101D3800DA604FF47A51514D1980044618465D60B7
:101D4800FEF71EFA4FF4407002F0AEFF4C4F4D4DB7
:101D58000121062003F086FB0121062003F082FB07
:101D68004FF4806640F2022302A93846CDE90263A7
:101D780003F09EF93846052208270A2103F0E8F9FE
:101D88000DEB07012846029703F092F90522284631
:101D9800032103F0DDF9A5F5E83501214FF4804072
:101DA80003F078FB6408284603F0A4FB364B049440
:101DB8000DEB0701002428460293ADF81470039434
:101DC80003F0CEFB01221146284605F50A3503F03B
:101DD80045FC583501214FF4001003F043FB214620
:101DE800284603F0A3F8284602F0DCFF4FF400630E
:101DF80009934FF400524FF48073CDE90A234FF44E
:101E08000033CDE90C3418A3D3E90023CDE902232C
:101E18001E4B04930DEB0701402328460693CDE99A
:101E28000E44089605940794109403F051F822463E
:101E38002846174903F084F801222846102103F0A8
:101E4800CFF80121284603F087F8124B019301A827
:101E580002F034FF0121284603F068F80E4B0122F6
:101E68001A6013B0F0BD00BF000000000C3800403D
:101E780000380240E40A0020000048430000FA4508
:101E8800000402400008024000032000180B002054
:101E9800980B00200E0A0A01E00A002010B5012064
:101EA80001F0ACFD1A484FF0C05103F063F820B9B7
:101EB800BDE81040012001F0ADBD1548154C4FF0AC
:101EC800C05103F073F8144B14489B6D144A15491C
:101ED80003F40023002B144B17BF204601240024D1
:101EE8001946023802F1800C30F8023F5BBA22F83A
:101EF800023B9445F8D10D4B09481E22FEF7BAF96A
:101F08000B4B1C70BDE81040012001F083BD00BFE1
:101F180058600240180B002000600240980B002017
:101F2800180C0020B80C0020980C0020E40A0020AF
:101F38005403002010B5084C23682BB1BDE81040AD
:101F48000648012103F07ABB4FF47A40FFF7E4FE1C
:101F58002368002BF2D110BDE00A002000380040B1
:101F680030B4C4786CB900EB8200DA1C9210D0F857
:101F7800D05006D02346013351F8040B28609A420A
:101F8800F9D1002030BC704703325FEAA20C30B4AC
:101F9800D0F8D0500BD00A46002301332C6842F801
:101FA800044B9C45F9D101EB8C0030BC70470846C6
:101FB80030BC7047012240239142F0B442808380B4
:101FC80000F05F81002940F04481BC4CBC4EBD4FFD
:101FD800BD4DDFF804C3C17240F20C624FF4A06338
:101FE8000280C38006210C222346C0E9034C03F576
:101FF8001064846103F53064446503F51264C461B8
:10200800022903F53264846569D003F51464046217
:10201800032903F53464C46561D003F5166444628A
:10202800042903F53664046659D003F518648462FC
:10203800052903F53864446651D003F51A64C4626F
:10204800062903F53A64846649D003F51C640463E1
:10205800072903F53C64C46641D003F51E64446354
:10206800082903F53E64046739D003F520648463C6
:10207800092903F54064446731D003F52264C46339
:102088000A2903F54264846729D003F524640464AB
:102098000B2903F54464C46721D003F5266444641E
:1020A8000C2903F54664C0F8804018D003F528646D
:1020B80084640D2903F54864C0F884400FD003F503
:1020C8002A64C4640E2903F54A64C0F8884006D01F
:1020D80003F52C61016503F54C61C0F88C1045616E
:1020E800C0F8CC70002A00F0AF8003F5A061012A87
:1020F800C0F8901000F0F48003F5A461022AC0F83B
:1021080094104BD003F5A861032AC0F8981045D065
:1021180003F5AC61042AC0F89C103FD003F5B06108
:10212800052AC0F8A01039D003F5B461062AC0F812
:10213800A41033D003F5B861072AC0F8A8102DD031
:1021480003F5BC61082AC0F8AC1027D003F5C061BC
:10215800092AC0F8B01021D003F5C4610A2AC0F8D2
:10216800B4101BD003F5C8610B2AC0F8B81015D0FD
:1021780003F5CC610C2AC0F8BC100FD003F5D06170
:102188000D2AC0F8C01009D003F5D4610E2AC0F892
:10219800C41003D003F5D861C0F8C81003F5805106
:1021A800C0F8D010022A03F50051C0F8D4104BD063
:1021B80003F54051032AC0F8D81045D003F58041F3
:1021C800042AC0F8DC103FD003F5A041052AC0F866
:1021D800E01039D003F5C041062AC0F8E41033D026
:1021E80003F5E041072AC0F8E8102DD003F50041B7
:1021F800082AC0F8EC1027D003F51041092AC0F8C6
:10220800F01021D003F520410A2AC0F8F4101BD0A1
:1022180003F530410B2AC0F8F81015D003F54041FA
:102228000C2AC0F8FC100FD003F550410D2AC0F855
:10223800001109D003F560410E2AC0F8041103D03B
:1022480003F57043C0F80831C0F80C610020F0BCF9
:1022580070474178027800234FF40064C0E90334E2
:1022680019B34FF41064846101294FF43064446554
:102278004FF460664FF488674FF480657FF4BDAE15
:102288002DE74FF481644FF4A072022304804FF0CD
:10229800A044C172C28003720C4E0D4F0D4DDFF881
:1022A8003CC00421082223469FE60B464FF4606693
:1022B8004FF488674FF4806511E700BF00000440C1
:1022C800000E04404004044000040440000E005086
:1022D800400400500004005000080440000800506A
:1022E80003F58053C0F8D030AEE700BF70B5037A6D
:1022F800012B82B0044642D1C268417A966B6FF3D3
:102308001046002938D063F314569663D368444DB9
:1023180023F4940323F04003D360002103200091A9
:10232800FFF788FCE3681A69009206E0FFF782FC71
:10233800E368013D1A69009218D0009A002A4FF00C
:102348000300F3DA0099364A41F00101009100993F
:1023580019611969009103E019690091013A02D0E5
:102368000099C807F8D40320FFF764FCE378012B31
:1023780047D0002002B070BDC6F30053C3E7C2685F
:10238800274DD36843F04003D3600026032001960D
:10239800FFF750FCE3681A69019206E0FFF74AFC70
:1023A800E368013D1A69019219D0019A002A4FF099
:1023B8000300F3DA01991A4A41F0010101910199E8
:1023C80019611969019103E019690191013A02D073
:1023D8000199C907F8D40320FFF72CFCE368627A57
:1023E800003A18BF0122120142F02D0262F317468B
:1023F8009E631420FFF720FCE378012BB9D1E16834
:1024080002E0E1682A238B608B6823F03E0242F0E9
:102418002A0262F3070300208B6002B070BD00BF80
:10242800400D030003460020DA68936843F0010377
:102438009360704703460020DA68936823F001032D
:102448009360704700B583B000230193019B43F06C
:1024580020030193019B61F38A130193C168019BD7
:102468000B610A69084B019203E00A690192013B7A
:1024780002D0019A9206F8D40320FFF7DBFB002074
:1024880003B05DF804FB00BF400D030000B583B046
:1024980000230193019B43F010030193C168019B42
:1024A8000B610A69084B019203E00A690192013B3A
:1024B80002D0019AD206F8D40320FFF7BBFB002014
:1024C80003B05DF804FB00BF400D030010B5C468FD
:1024D800E368C3F3076222F06002012962F31F6315
:1024E80008D009B943F080433220E360FFF7A4FB2A
:1024F800002010BD43F00053F6E700BFC3685869D9
:10250800C04300F001007047C36858699B691840D0
:10251800704700BFD0F80C310269002170B519600E
:10252800136861F3CC231360C37A012B82B004468D
:1025380000F0E581C16800230193019B43F020036B
:102548000193019A7E4B102060F38A120192019A3E
:102558000A610A69019203E00A690192013B02D00B
:10256800019A9006F8D40320FFF764FB0023009338
:10257800009BE16843F010030093009B0B610A691C
:102588006F4B009203E00A690092013B02D0009A67
:10259800D206F8D40320FFF74DFB216900224FF043
:1025A800FF330A614A618B61CA616378002B00F0CE
:1025B8008481A5692E68002EACBF00264FF0904696
:1025C800FF20012B2E602A61A86000F0C781E56911
:1025D8002E68002EACBF00264FF09046022B2E60CE
:1025E8002A61A86000F0AE80256A2E68002EACBF74
:1025F80000264FF09046032B2E602A61A86000F059
:10260800A180656A2E68002EACBF00264FF0904668
:10261800042B2E602A61A86000F09480A56A2E68B9
:10262800002EACBF00264FF09046052B2E602A6185
:10263800A86000F08780E56A2E68002EACBF0026EF
:102648004FF09046062B2E602A61A8607AD0256B41
:102658002E68002EACBF00264FF09046072B2E6048
:102668002A61A8605FD0656B2E68002EACBF00267B
:102678004FF09046082B2E602A61A86053D0A56BB6
:102688002E68002EACBF00264FF09046092B2E6016
:102698002A61A86047D0E56B2A68002AACBF0022EF
:1026A8004FF090422A600020FF220A2B2861AA607E
:1026B80039D0256C2E688642ACBF06464FF090464E
:1026C8000B2B2E602861AA602DD0656C2E6886427F
:1026D800ACBF06464FF090460C2B2E602861AA60CE
:1026E80021D0A56C2E688642ACBF06464FF09046B6
:1026F8000D2B2E602861AA6015D0E56C2E688642E5
:10270800ACBF06464FF090460E2B2E602861AA609B
:1027180009D0256D2E688642ACBF06464FF090461C
:102728002E602861AA60656D2A68002A80F20B81F4
:102738004FF090422A6000222A61FF22AA600BE033
:10274800400D0300656D2A68002AC0F20F8100223F
:102758002A602A61FF22AA60A56D2A68002AACBFF8
:1027680000224FF090422A600020FF22022B2861AD
:10277800AA6040F2A280E56D2E688642ACBF06468C
:102788004FF09046032B2E602861AA6000F09580D8
:10279800256E2E688642ACBF06464FF09046042B45
:1027A8002E602861AA6000F08880656E2E688642D7
:1027B800ACBF06464FF09046052B2E602861AA60F4
:1027C8007BD0A56E2E688642ACBF06464FF0904679
:1027D800062B2E602861AA606FD0E56E2E688642AF
:1027E800ACBF06464FF09046072B2E602861AA60C2
:1027F80063D0256F2E688642ACBF06464FF09046E0
:10280800082B2E602861AA6057D0656F2E68864213
:10281800ACBF06464FF09046092B2E602861AA608F
:102828004BD0A56F2E688642ACBF06464FF0904647
:102838000A2B2E602861AA603FD0E56F2E68864279
:10284800ACBF06464FF090460B2B2E602861AA605D
:1028580033D0D4F8802010680028ACBF00204FF097
:10286800904010600025FF200C2B1561906024D04B
:10287800D4F884201668AE42ACBF2E464FF090467E
:102888000D2B16601561906017D0D4F88820166853
:10289800AE42ACBF2E464FF090460E2B1660156127
:1028A80090600AD0D4F88C301A68AA42ACBF2A4685
:1028B8004FF090421A601D6198600B6943F4807371
:1028C8000B61E07801282FD0E26800236FF0804187
:1028D80098424FF0FF3427489361516108BF102395
:1028E80054605161906143F44323916943F4006358
:1028F80043F008030B430020936102B070BD1368D6
:10290800C16843F003038020136048624FF40073EA
:102918004FF080104FF001228862C1F80421C1F8FD
:102928000831C1F80C3106E6E268134D0D636FF00B
:102938008040104C00234FF0FF319361506151608B
:1029480050619461CFE700222A6000222A61012B9E
:102958004FF0FF02AA607FF4FFAEAEE7656D2E6808
:10296800002E03DB2A602A61A860A6E74FF0904298
:10297800EAE700BF00080080030181000369986846
:10298800C0F3410002281DBF20F00200C0F103007F
:10299800C0B20120704700BF036981699A6808685E
:1029A800C2F34102022A14BF0022032262F30A0082
:1029B80008605A6842F4807200205A60704700BF6D
:1029C80030B44B78012B4FF0000227D00D7800EB84
:1029D80085035C6D0123AB4063F31F4225682B041C
:1029E80015D48B6891F803C0C988C3F30A0343F070
:1029F800805343F400430CF0030C01F00F0143EA49
:102A08008C4343EA8153094929400B4323600369F6
:102A1800D9690A43002030BCDA6170470C78A340BA
:102A280000EB840463F30F02A469D7E7007833EC62
:102A38004A78012A4FF0000C0FD00A7800EB820187
:102A480001239340496D63F31F4C0269002008601D
:102A5800D36923EA0C03D36170470B7800EB830139
:102A68009A40896962F30F0CEFE700BF2DE9F04344
:102A78004B78012B30D00B7800EB83035C6D4B69EE
:102A8800226825691BB38E683344013BB3FBF6F318
:102A9800C3F3090C06FB0CFCC3F30903CCF3120CBB
:102AA8004CEAC34363F31C052561C378012B04BFBB
:102AB8000B696361CB78012B44D0C2F3076363F0E1
:102AC8007B0363F31F6222600020BDE8F0838B68FC
:102AD800C3F3120C0123E3E791F800E04E6900EB21
:102AE8008E0CDCF818703A683C6986B3D1F8089007
:102AF80004F06045354C06EB090808F1FF38B8FBCF
:102B0800F9F804EAC844C6F3120844EA080491F83C
:102B180003802C43B8F1010F254645D03C61C478A9
:102B2800012C4FD00169486B03FA0EF303434B6342
:102B3800C2F3076363F07B0363F31F623A6000200C
:102B4800BDE8F0834B7963B342F00052B5E704F077
:102B5800604444F40024CD783C61C378012B2CD028
:102B6800012DE5D100698068C00554BF42F00052CC
:102B780042F08052C2F3076060F07B0060F31F628E
:102B88003A60002BA0D1B0B203308010DCF8D040FE
:102B98009AD0CA6852F8041B216001339842F9D1CF
:102BA80092E742F0805288E768F35E753D61C3782A
:102BB800012BD7D10C697C61D4E70C697C61012DAC
:102BC800B6D1CFE70B697B61B2E700BF0000F81F01
:102BD80030B44B78012B82B029D00B7800EB8303FB
:102BE8005D6D2C682B6900934B69E3B18B684B6171
:102BF80003F07F0343F40022009B23F4C01323F067
:102C08007F0313432B61C378012B04BF0B696B61EE
:102C1800C4F3076363F07B0363F31F642C60002035
:102C280002B030BC70478B6803F07F03E2E782692B
:102C38004D6914681369009355B38B689D4284BF2E
:102C48004B6103F07F05009B98BF05F07F0523F4D7
:102C5800C01323F07F0345F400251D430095009B16
:102C68001361C378012B1FD0C4F3076565F07B059A
:102C780065F31F641460002BD1D14B69002BCED0B3
:102C880002690878516B012383400B435363C6E7FD
:102C980023F4C01323F07F0343F400230093009B25
:102CA8001361C378012BDFD10B780D6900EB83002A
:102CB800C4F30763816963F07B0363F31F64002037
:102CC8004D61146002B030BC704700BF4B78012BD7
:102CD80009D00B7800EB8300426D136843F40013AE
:102CE8001360002070470A78094900EB8200806968
:102CF8000268002AA8BFC2F380739B0301EA12414D
:102D080043F020030B4363F31F4202600020704727
:102D1800DFBFFFFF4B78CA78012B0B7800EB8300ED
:102D2800A2F102020CBF8069406D0368012A6FF3AB
:102D380055538CBFC3F30072012262F31C73036006
:102D48000020704703699869DB691840000C7047D8
:102D580000EB810103694A6D90685B691840704710
:102D680003699869DB69184080B27047436D064A69
:102D78001A61C278012A06D100F2CC5058614FF08E
:102D8800802219681A607047180008C0837A63B1F6
:102D980003699B68DB0708D5D0F80C31D0F80C2103
:102DA80023F0030161F307031360704710B504466D
:102DB800FFF700F962780120002384F8120184F8F3
:102DC8001431002A00F0CF814FF48071A4F81C114F
:102DD80082424FF04001C4E94913A4F8223184F833
:102DE8001F31C4F8303100F0D081A4F84A01022A1A
:102DF80040F20110C4E9531384F84731C4F858313C
:102E0800A4F8440100F0D2804FF48170A4F86C015A
:102E1800032A4FF00200C4E95D13A4F8720184F894
:102E28006F31C4F8803100F0C18040F20310A4F87B
:102E38009401042A4FF00300C4E96713A4F89A0127
:102E480084F89731C4F8A83100F0B0804FF482704C
:102E5800A4F8BC01052A4FF00400C4E97113A4F8D2
:102E6800C20184F8BF31C4F8D03100F09F8040F22D
:102E78000510A4F8E401062A4FF00500C4E97B1305
:102E8800A4F8EA0184F8E731C4F8F83100F08E803C
:102E98004FF48370A4F80C02072A4FF00600C4E927
:102EA8008513A4F8120284F80F32C4F820327DD0BA
:102EB80040F20710A4F83402082A4FF00700C4E9CA
:102EC8008F13A4F83A0284F83732C4F848326DD028
:102ED8004FF48470A4F85C02092A4FF00800C4E992
:102EE8009913A4F8620284F85F32C4F870325DD096
:102EF800092140F20910A4F88A120A2A4FF0400169
:102F0800C4E9A313A4F8840284F88732C4F8983279
:102F18004CD04FF48570A4F8AC020B2A4FF00A008D
:102F2800C4E9AD13A4F8B20284F8AF32C4F8C032D1
:102F38003CD040F20B10A4F8D4020C2A4FF00B003E
:102F4800C4E9B713A4F8DA0284F8D732C4F8E8322F
:102F58002CD04FF48670A4F8FC020D2A4FF00C0018
:102F6800C4E9C113A4F8020384F8FF32C4F810338B
:102F78001CD040F20D10A4F824030E2A4FF00D00C7
:102F8800C4E9CB13A4F82A0384F82733C4F83833E8
:102F98000CD04FF48770C4E9D513A4F84C030E2065
:102FA800A4F8520384F84F33C4F860330023402157
:102FB8000120022AC4E9DF13C4E9E913A4F8743331
:102FC800A4F87A3384F87733C4F88833A4F89C03D8
:102FD800A4F8A20384F89F33C4F8B03300F0C38088
:102FE8000220032AC4E9F313A4F8C403A4F8CA030B
:102FF80084F8C733C4F8D83300F0B5800320042A16
:10300800C4E9FD13A4F8EC03A4F8F20384F8EF3341
:10301800C4F8003400F0A7800420052AA4F814049A
:10302800A4F81A0484F81734C4F81C14C4F820341B
:10303800C4F8283400F097800520062AA4F83C0438
:10304800A4F8420484F83F34C4F84414C4F848345B
:10305800C4F8503400F087800620072AA4F86404D6
:10306800A4F86A0484F86734C4F86C14C4F870349B
:10307800C4F8783477D00720082AA4F88C04A4F878
:10308800920484F88F34C4F89414C4F89834C4F8BB
:10309800A03468D00820092AA4F8B404A4F8BA0413
:1030A80084F8B734C4F8BC14C4F8C034C4F8C834BD
:1030B80059D009200A2AA4F8DC04A4F8E20484F808
:1030C800DF34C4F8E414C4F8E834C4F8F0344AD05F
:1030D8000A200B2AA4F80405A4F80A0584F8073581
:1030E800C4F80C15C4F81035C4F818353BD00023C3
:1030F8000B2040210C2AA4F82C05A4F8320584F8EA
:103108002F35C4F83415C4F83835C4F840352AD0FA
:103118000C200D2AA4F85405A4F85A0584F857354C
:10312800C4F85C15C4F86035C4F868351BD00D20A8
:103138000E2AA4F87C05A4F8820584F87F35C4F823
:103148008415C4F88835C4F890350CD00E22A4F83C
:10315800A425A4F8AA2584F8A735C4F8AC15C4F8A2
:10316800B035C4F8B8352046FFF764F92046FFF7B4
:10317800BDF800212046FFF7A9F92046FFF7CAF954
:103188002046BDE81040FFF74DB9C4E9DF13A4F8A5
:103198007433A4F87A3384F87733C4F88833E2E7D1
:1031A80011F0800F08B51CD101EB810C00EBCC0CA1
:1031B8004FF0280E0EFB010ECCF87C2300220EF5F2
:1031C8005D7E8CF874138CF877338CF87523022B9A
:1031D80004BF00238EF804307146FFF7F1FB00208E
:1031E80008BD01F07F0C0CEB8C0100EBC1014FF026
:1031F800280E0EFB0C0EC1F8242101220EF58E7E3E
:1032080081F81CC181F81F31A1F822C181F81D2164
:10321800DDE700BF4FFA81FCBCF1000F08B50A4694
:103228000DDB282303FB010303F55D714FEADC7C0A
:103238000A7081F801C0FFF7FBFB002008BD01F010
:103248007F02282303FB020303F58E71EEE700BF1C
:1032580010B501F07F0404EB840C00EBCC0C2821A2
:10326800CCF888330023CCF880238CF87443CCF84E
:103278008C338CF87533C37801FB0401012B01F5FD
:103288005D7108BFCCF884231CB9FFF7A1FC0020AE
:1032980010BDFFF7EBFB002010BD00BF10B501F01B
:1032A8007F0404EB840E00EBCE0E2821CEF83031DB
:1032B8000023CEF8343101FB040C0123CEE94A2265
:1032C8008EF81C410CF58E718EF81D311CB9FFF774
:1032D8007FFC002010BDFFF7C9FB002010BD00BF18
:1032E8004FFA81FCBCF1000F08B50A460FDB282312
:1032F80003FB010303F55D714FEADC7C01238B704E
:103308000A7081F801C0FFF7E1FC002008BD01F058
:103318007F02282303FB020303F58E71ECE700BF4D
:103328004FFA81FCBCF1000F10B50A460FDB2823C9
:1033380003FB010303F55D7100244FEADC7C8C700C
:103348000A7081F801C0FFF7E5FC204610BD01F0C6
:103358007F02282303FB020303F58E71ECE700BF0D
:1033680008B50B0603D4FFF791F8002008BD01F05B
:103378007F01FFF767F8002008BD00BF026900233E
:10338800106861F30A130343136070472DE9F04F87
:1033980085B00446FFF7B2F810B905B0BDE8F08F64
:1033A8002046FFF7B1F8C0F30749064619F00800B0
:1033B80040F09D8119F0040F40F0ED80002EC0F21E
:1033C800ED813205C6F3072700F16081F5B23607B3
:1033D80020D4E9062AD4FA0651D4BB06DDD5204606
:1033E800FFF7DAFAE3682046DD68FFF7C7FA032833
:1033F80000F0EF81012140220523A170A28063F330
:103408008D25E3684FF400520120DD605A6105B054
:10341800BDE8F08F9C4B1B682046DB689847E36843
:103428000822E9065A614FF00100D4D5E1688B699A
:1034380023F010038B610E6AC6F34342022A06F09A
:103448000F0500F0CF81062A11D105EB850504EBA5
:10345800C505082204F2CC512046FEF795FDD5F8A3
:103468008C23E168C6F30A131344C5F88C338B69BF
:10347800FA0643F010034FF001008B61ADD52269C5
:103488005368002523F00103536029462046FEF7C0
:10349800D9FF62782E46002A5DD0A069616DFF23AE
:1034A800012A83608B6056D0E1698B60A16D022A86
:1034B8008B6050D0216A8B60E16D032A8B604AD003
:1034C800616A8B60216E042A8B6044D0A16A8B608C
:1034D800616E052A8B603ED0E16A8B60A16E062A78
:1034E8008B6038D0216B8B60E16E072A8B6032D0FD
:1034F800616B8B60216F082A8B602CD0A16B636F86
:10350800FF20092A8860986025D0E36B9860A36F34
:103518000A2A98601FD0236C9860E36F0B2A986082
:1035280019D0636C9860D4F880300C2A986012D057
:10353800A36C9860D4F884300D2A98600BD0E36CA3
:103548009860D4F888300E2A986004D0236D98606B
:10355800D4F88C30986023690B2262F3070562F374
:1035680007064FF0FF329A614FF00112DA615D6190
:103578001E611A686FF30A121A602046FFF7F6FBFD
:10358800414BE2681B684FF480511B69516120462A
:103598009847012021E72046FFF7E2FB81460028F3
:1035A80070D004F1180A25464FF0000B019619E077
:1035B8003548DAF800600068114647685A6B012000
:1035C80000FA0BF022EA00025A630123B360204696
:1035D800B8475FEA59090BF1010B0AF1040A05F132
:1035E80028054ED019F0010FF3D05FFA8BF204EBE7
:1035F80082039869236919695F6B80680140C9076C
:10360800D6D4D5E94C13D5F82401DAF80060A1EB3B
:10361800030E7045B76928BF7046BFB20330B7EBD9
:10362800900F2BD93046904623E0D5F82431D5F8B1
:1036380028119E4228BF1E464246B3B22046FEF7D6
:103648008FFCD5F83431D5F82821D5F8301133441A
:10365800F71C32448B424FEA9707C5F82821C5F872
:10366800343180F0DC80DAF80000826992B2974247
:1036780003D29942A1EB0306D7D806468023B3604C
:10368800A7E7019E012099E6540400206A4B94F8AC
:1036980012211B6800215B698DF80F1020468DF8F8
:1036A8000F209847D4E9033291684FF400625A61B9
:1036B800A37AD3B1CB0718D594F81501012814D1F2
:1036C8009DF80F30032B7FF481AED4F80C311A68C3
:1036D80042F001021A601A6842F003021A60574A5F
:1036E800136943F00603136170E601206EE6204675
:1036F800FFF728FB054600284ED0DFF83CA104F16F
:103708005407A3464FF0000807E06D0808F10108C8
:1037180007F104070BF1280B3ED0E907F5D55FFA4E
:1037280088F120460191FFF713FB10F0010F019972
:10373800C3B205D19A0724D53B6802229A60E4E710
:103748003B6801229A60E278012A07D11A69DBF8FE
:103758007C33C2F312029B1ACBF88C33DAF80030B0
:1037680020461B689847E378012BCED1B8F1000FAB
:10377800CBD194F81131052BC7D12046FFF7F6FAC3
:10378800C3E71807C1D5DAF8003020469B68984788
:103798003B6808229A60B8E701200BE6A37A43B198
:1037A800D4F80C3123F0030262F30703D4F80C2198
:1037B8001360226920495368096823F00103896965
:1037C800536020468847E3684FF000425A61012061
:1037D800F7E500214FF400720923A170A28063F37A
:1037E8008D250EE647F6F07232423FF440AE05EB07
:1037F800850504EBC505C6F30A16D5F880133246CD
:103808002046FEF7C1FBD5F88C13D5F88033334436
:103818000E44C5F88033E168C5F88C6327E695F84F
:103828001C312169DAF8006001229A404B6B23EAC7
:1038380002034B6322E700BF5404002000ED00E0C0
:10384800002070476D2301480B80704784030020D7
:1038580010B581210446FFF783FD084B1B78012B27
:103868000CBF074A074A202381212046FFF716FD8F
:10387800032000F0DBF8002010BD00BF5403002037
:10388800B80C0020980C002008B5022000F0CEF8F3
:10389800002008BDF8B50C7814F060040E464FF00F
:1038A80000070ED0202C09D14D78012D26D0812D6E
:1038B8001DD0022401F0C0F92046F8BD3C46204640
:1038C800F8BD4B780A2B2BD00B2B05462DD0062B99
:1038D800F5D14B881B0A212B03D1CF88092F28BF8C
:1038E80009271F493A46284600F046FFE7E7CA88F5
:1038F8001C493C4600F040FF2046F8BDCC88002C0F
:10390800DDD02246174900F04DFF174AB3881570DD
:103918001648174AF18811601B0A3C460370CEE727
:103928001449012200F028FFC9E78B78012B0ED833
:10393800104A13601368012B0CD00F4B02201C6037
:1039480000F068F881212846FFF70AFDB7E701F083
:1039580073F9B4E7084A0220136000F04FF8AEE7A5
:1039680096030020D80C0020180D0020200D002000
:103978001C0D0020280D0020240D002008B58121F1
:10398800FFF748FC002008BD08B52022012381214B
:10399800FFF706FC002008BD10B5074C2368012B73
:1039A80001D0002010BD202300228121FFF776FCE2
:1039B80002232360002010BD240D002010B50B4BFE
:1039C80082B00446012153F8200001F04BFD084B5A
:1039D800084933F81420084B51F824006946CDE90A
:1039E800002301F065FB02B010BD00BF4857000876
:1039F80058570008F803002001020001034B044A4D
:103A080053F8203032F810201A837047F80300204A
:103A180058570008034B044A53F8203032F8102056
:103A28005A837047F803002058570008044A054B8A
:103A380052F8202033F8103051694B4053617047D9
:103A4800F80300205857000870B50C46012186B0CD
:103A58000546084601F006FD01214FF4804001F0BB
:103A680025FD134A0026012352F825008DF80C6025
:103A780002A98DF80F60029301F01AFB012C01D006
:103A880006B070BD3146304601F008FE04A84FF478
:103A98000063ADF8143004948DF8164001F0C0FAB4
:103AA800044B019301A801F009F906B070BD00BFED
:103AB800F4030020060F0F0170B51A4C206801F0BE
:103AC80055FA0028FAD1184B184E19682068184D75
:103AD80001F06CFA174933688B602B6820684FF641
:103AE800FF72934228BF13460B6101F0F1F90121DF
:103AF800206801F01BFA2B6832682068B3F5803F14
:103B08002CBF0D4959000A4432604FF6FF729342A8
:103B180094BFDB1A9B1A2B600121BDE8704001F0AD
:103B280005BA00BF1804002010040020340D00203E
:103B3800300D0020380D0020FEFF01002DE9F04176
:103B48009C4C9D4D4FF4961306460F46236005E0A6
:103B580023685A1E2260002B00F01F814FF40031A9
:103B6800284601F007FC0028F2D19348DFF850827C
:103B7800914D012101F0B4FB4FF48053236005E01F
:103B880023685A1E2260002B00F00881414628460F
:103B980001F0E2FB0028F3D08748DFF83482864D35
:103BA8000022942101F0B8FB4FF48053236005E014
:103BB80023685A1E2260002B00F0F18041462846F7
:103BC80001F0CAFB0028F3D07B48DFF808827A4D61
:103BD800314601F0BBFB4FF48053236005E02368B6
:103BE8005A1E2260002B00F0DB804146284601F077
:103BF800B3FB0028F3D07048DFF8C0816E4D39461A
:103C080001F0A4FB4FF49613236005E023685A1EC5
:103C18002260002B00F0C5804146284601F0AAFB2F
:103C28000028F3D06448644D012101F067FB4FF48C
:103C38009613236005E023685A1E2260002B00F0CB
:103C4800B1804FF40031284601F094FB0028F2D1EE
:103C58005948DFF86C81584D012101F041FB4FF4C0
:103C68008053236005E023685A1E2260002B00F071
:103C78009A804146284601F06FFB0028F3D04E4851
:103C8800DFF84C814C4D0022942101F045FB4FF4A4
:103C98008053236005E023685A1E2260002B00F041
:103CA80083804146284601F057FB0028F3D031466F
:103CB8004148424E404D01F049FB4FF48053236088
:103CC80004E023685A1E2260002B6ED03146284635
:103CD80001F050FB0028F4D03748394E364D012109
:103CE80001F0FEFA4FF48053236004E023685A1E63
:103CF8002260002B5AD03146284601F02DFB0028BF
:103D0800F4D02D482C4D2F4E0122942101F004FBB4
:103D18004FF48053236004E023685A1E2260002B6E
:103D280045D02548314601F025FB0028F4D022482B
:103D3800254E002101F0FCFA1F482B8B1E4D012156
:103D480001F0DCFA4FF48053236003E023685A1E25
:103D580022606BB33146284601F00CFB0028F5D0F1
:103D6800154801F0F5FA4FF48053134A23600546CD
:103D780003E02368591E2160DBB113889B05F8D442
:103D88000D48012101F0D4FA0B48104901F00EFB4F
:103D9800781B18BF0120BDE8F081FEE7FEE7FEE7CB
:103DA800FEE7FEE7FEE7FEE7FEE7FEE7FEE7FEE7E3
:103DB800FEE7FEE720040020005400400400001045
:103DC8000100030002000010400000100004001071
:103DD80082000700800007002DE9F8432D4BDFF82B
:103DE800E0802D4F4E08B6F5003F38BF8C080546D9
:103DF8001968D8F800003E6028BF4FF6FF7401F03C
:103E0800D5F8264BD3F80090B9F1010F2CD0244AED
:103E180024491560244A254B0C616400D8F8000039
:103E2800148000221A808D6001F052F8D8F8000042
:103E3800012101F07BF81E48838B5B0525D53B6883
:103E48001C4A4FF6FF718B4294BFF61A761AB3F5E7
:103E5800803F28BF184B166038BF5B00174A1D44C7
:103E680015600020BDE8F8830E49D8F800008D6081
:103E780064000C6101F02CF8D8F80000494601F004
:103E880055F80B48838B5B05D9D4012101F0D6FB8B
:103E9800D5E700BF100400201C04002024040020E3
:103EA800780D0020380D00207C0D0020760D0020B4
:103EB800003C0040300D0020FEFF0100340D0020C2
:103EC8001804002070B50F4D0F4C2968206801F0C8
:103ED80051F830B10D4B1E6826B1BDE87040FFF7B0
:103EE800EBBD70BD2068314601F020F829682068D4
:103EF80001F05CF8064B31461868BDE87040FDF7E4
:103F08005BBD00BF1004002018040020300D002005
:103F1800340D002070B50F4D0F4C2968206801F052
:103F280029F830B10D4B1E6826B1BDE87040FFF787
:103F3800C3BD70BD2068314600F0F8FF29682068CD
:103F480001F034F8064B31461868BDE87040FDF7BB
:103F580033BD00BF1004002018040020300D0020DD
:103F6800340D002008B52E48022101F091FBD8B18C
:103F78002C4A2D4913682D48022B00880B8814D031
:103F880098422AD3126801339BB2022A0B802ED0A2
:103F9800274A28481368198801800233136020488B
:103FA800BDE8084001F058BB08BD98421CD3126810
:103FB80001339BB2022A0B8025D01D4A1D48136885
:103FC8001988018002331360042000F0DBFEBDE88D
:103FD80008401348002101F03FBB164B19881048D0
:103FE800BDE8084001F038BB124B1988ECE71049CE
:103FF8000A68DB075CBF131D0B6011880D4B81F449
:1040080000411980EBE70A490A68D8075CBF131D0D
:104018000B601188074B81F400411980D4E700BF79
:10402800003C004024040020760D00207C0D002078
:10403800780D00207E0D00202DE9F04608208BB079
:104048008A4601211746102401F00CFA40F20113A8
:104058008F4806A9CDE9064301F02AF80121072077
:1040680001F000FA8B4B8C4806A94FF41075CDE986
:10407800065301F01DF888480422062101F068F86B
:1040880004228548092101F063F84FF4A05640F254
:104098000223824806A9CDE9066301F009F8804E9B
:1040A80080480622042101F053F87C4806220A21A0
:1040B80001F04EF83368022B00F0A9807948069485
:1040C80006A900F0F5FF754806220C2101F040F81A
:1040D80040F202238020CDE9060306A96F4800F0CC
:1040E800E7FF6E480622072101F032F868480022EF
:1040F800102101F027F844F6FF74013CFDD101229C
:104108006348102101F01EF801214FF4001001F05E
:10411800C1F9654801F030F86449654B6248CDE95A
:104128000713644B069301214FF48043ADF8243004
:1041380001F0C8F85C4806A901F054F801210220F2
:10414800FFF7FCFCAF2105460420FFF7F7FC5A4BAC
:10415800AF220544812105201A70FFF7EFFC0421E6
:1041680005440620FFF7EAFC0AF11901C9B2054423
:1041780020200191FFF7E2FC01992120FFF7DEFCE6
:104188003368022B53D09E210220FFF7D7FC002171
:1041980005440A20FFF7D2FC3368022B05EB000424
:1041A80004D004210E20FFF7C9FC04440021272075
:1041B800FFF7C4FC0F2104441F20FFF7BFFC0A21AE
:1041C80004441A20FFF7BAFC0A2104441B20FFF715
:1041D800B5FC012104444FF4004001F05BF9374875
:1041E80001F088F900254FF000734FF4007233484E
:1041F800089706A9CDE90623ADF8245001F0B0F9D7
:104208003368022B2ED020460BB0BDE8F086012182
:10421800084601F027F903238DF81C30214806943D
:10422800002306A98DF81F3000F042FF50E7012156
:104238000820FFF783FC012181460920FFF77EFC57
:1042480048440544C0210E20FFF778FC2146054468
:104258001420FFF773FC214605441520FFF76EFC78
:10426800054490E701214FF0005001F013F90022B6
:10427800002302A92846CDE90223059500F056FD42
:104288002846012100F06AFD20460BB0BDE8F08603
:10429800000C024002020100000402400008024033
:1042A8002404002000000240005400400000FFBF2A
:1042B80033000004A0860100740D0020003C00407B
:1042C80010B50446002001F07FF8B4F5FA4F19D074
:1042D80021D8B4F57A5F15D00DD945F222639C42F6
:1042E80004D1042140F2AD1001F064F8BDE810409B
:1042F800012001F069B8B4F5FA5F2BD042F611330A
:104308009C42F3D1D520022101F054F8BDE81040B9
:10431800012001F059B84BF680339C4224D0174B4A
:104328009C4209D14FF4AC70022101F043F8BDE87A
:104338001040012001F048B84AF644439C42D5D1C8
:1043480040F20F10022101F035F8BDE810400120BD
:1043580001F03AB84FF48070052101F02BF8BDE860
:104368001040012001F030B84FF48170032101F0B2
:1043780021F8BDE81040012001F026B800770100BF
:10438800F0B58BB00C46054610460192FFF798FF32
:10439800642C019A0FD84D4BC4EB0421A3FB0131C7
:1043A800C1F347112846FFF747FE044650B10124E0
:1043B80020460BB0F0BD64212846FFF73DFE0446B9
:1043C8000028F4D100BF424D2E68012E3BD02A6848
:1043D800012A31D03F48012101F044F801214FF072
:1043E800005001F057F81023002504A904933A4817
:1043F8008DF8175003238DF8143000F059FE002271
:104408000023CDE9062306A9022300222846CDE988
:10441800082300F08BFC2846012100F09FFC0122B4
:1044280071212E4801F024F92D4B069306A800F0BF
:1044380045FC20460BB0F0BD2848022101F00EF9DA
:1044480020460BB0F0BD274B274F1868314601F0C6
:1044580009F82146386800F069FD386800F0A2FCC8
:10446800224B23491B680B60224B38681B684B6042
:1044780040224FF6FE73C1E903234FF4806C4FF4DA
:104488000063C1E906C34FF400530B624FF40033D5
:104498008B62C1E90B44C1E90D448C604C614C62EC
:1044A80000F016FD38683246102100F099FD124AD6
:1044B8008DF80F600A2312688DF80C2003A88DF878
:1044C8000D308DF80E3000F0F9FB80E71F85EB51B9
:1044D800240400200100200000000240003C0040AD
:1044E800330A0A0108040020180400202C0D0020BB
:1044F800380D00200C0400201404002010B5D0F85A
:10450800E83504461B699847032384F812310020D4
:1045180010BD00BF08B5042290F81211D0F8E83594
:1045280080F8131180F81221DB689847002008BD35
:1045380008B5D0F8E435DB6903B19847002008BD19
:1045480008B5D0F8E4351B6A9847002008BD00BFBD
:1045580008B5D0F8E4355B6A9847002008BD00BF6D
:10456800002310B5194604464022FEF719FE8021A3
:10457800002340222046FEF713FED4F8E835A07841
:10458800012284F812215B689847002010BD00BF03
:1045980010B582B06946044600F02EFB9DF8001065
:1045A80001F01F03012B0AD0022B16D073B101F0C2
:1045B80080012046FEF794FE002002B010BD694637
:1045C800204600F08BFA002002B010BD6946204654
:1045D80000F01EF9002002B010BD6946204600F028
:1045E8009FFA002002B010BD38B5044649B990F8CA
:1045F8001131022B1AD094F81631012B0DD000205E
:1046080038BDD0F8E4355B69002BF8D090F812215A
:10461800032AF4D19847002038BD1F4B2269196836
:104628005160002384F81631002038BDD0F83821B5
:10463800D0F824319A4222D8D0F83C21B2FBF3F5C5
:1046480003FB15255DB9934209D8D0F840319A4249
:1046580005D22A4600F09EF8C4F84051CBE7D4F8BA
:10466800E435DB681BB194F81221032A10D02046E8
:1046780000F0BEF894F81631012BC0D1CDE7D21A5C
:10468800D0F82811C0F8382192B200F083F8B2E7C8
:1046980020469847EBE700BF800D002010B5044680
:1046A80029B990F81131032B0DD0002010BDD0F896
:1046B800E4359B69002BF8D090F81221032AF4D135
:1046C8009847002010BDD0F89033D0F87C2393424F
:1046D80012D9C1780129D0F88013A3EB020304BFD3
:1046E8008918C0F880139A4228BF1A46C0F8903338
:1046F80092B200F065F8D8E7D0F8E4351B691BB131
:1047080090F81221032A03D0204600F061F8CCE784
:104718009847F9E7F0B583B0044615461E46089F4A
:104728000191FDF731FA20460199C4F8E465C4F80F
:10473800E875C4F8EC55FEF739FBD4F8E8351B6882
:104748009847204603B0BDE8F040FDF763BA00BFC4
:10475800D0F8E43510B504461B689847D4F8E83516
:104768009B689847002010BD08B5D0F8E4355B6811
:104778009847002008BD00BF08B513460A46022125
:10478800C0E94E3380F811110021FEF787FD0020A3
:1047980008BD00BF08B513460A460021FEF77EFD96
:1047A800002008BD08B513460A460321C0E9E433D2
:1047B80080F811110021FEF74BFD002008BD00BF55
:1047C80008B513460A460021FEF742FD002008BD41
:1047D80010B50023042104461A4680F81111194621
:1047E800FEF75CFD2046FEF7C1FA002010BD00BFB1
:1047F80010B50023052104461A4680F81111194600
:10480800FEF726FD2046FEF7B1FA002010BD00BFD6
:1048180070B54B7882B00D460446092B11D8DFE8F5
:1048280003F03D501065107A0510961E4B881E0A3D
:10483800022E00F02C81032E00F0F080012E00F0F3
:10484800968080212046FEF74BFD00212046FEF78A
:1048580047FD2046FEF78AFA002002B070BD89782D
:104868009A4D01292970ECD890F81231022B00F0EA
:10487800A180032BE5D1002900F0188190F81011D0
:1048880001292FD0FFF770FF297884F810112046EE
:10489800FFF75EFF2046FFF79BFFDDE790F8123138
:1048A800023B012BCDD88A4BD0F818210021196082
:1048B8000AB102221A60864902222046FFF75CFFED
:1048C800CAE790F81231023B012BBAD84B88012B6A
:1048D800C2D1D0F8E43500229B68C0F818212946D7
:1048E800204698472046FFF773FFB5E74B88012B12
:1048F80000F08E80022BAFD18B88DAB2002AABD1C0
:1049080002691B0A013B5268042B68D8DFE803F0F0
:10491800787C747064008B88002B92D1CB88002B34
:104928008FD190F81231032B8BD04D8805F07F057D
:1049380080F814512946FEF721FD2046FFF748FF6D
:10494800002D00F0AF80022384F8123184E7CA8872
:10495800012A7FF476AF90F81231022B38D0032B5E
:104968007FF46FAF00F58871FFF706FF74E7D0F8A2
:10497800EC3580781B680DF106019847EA88402AD3
:1049880000F09F8094F81231012B00F09C80BDF854
:104998000630002B3FF460AFEA88002A3FF45CAF92
:1049A8009A4228BF1A4601462046ADF80620FFF76E
:1049B800E3FE51E7002995D00121032380F8101167
:1049C80080F81231FFF7C4FE2046FFF701FF43E7E6
:1049D8004049FFF7D1FE3FE7052363F306123E4B3C
:1049E800012184F8161120461A60FFF7F1FE33E71B
:1049F800042363F30612F2E7032363F30612EEE7D8
:104A0800012363F30612EAE7022363F30612E6E7DB
:104A1800D0F8E425C0F81831936860E7DBB2052BBD
:104A28003FF60FAFDFE803F02B231B130B03D0F87F
:104A3800EC3580789B690DF106019847A7E7D0F817
:104A4800EC3580785B690DF1060198479FE7D0F84F
:104A5800EC3580781B690DF10601984797E7D0F887
:104A6800EC358078DB680DF1060198478FE7D0F8C0
:104A7800EC3580789B680DF10601984787E7D0F8F8
:104A8800EC3580785B680DF1060198477FE7D0F830
:104A9800E43580789B6A0DF1060198474670C4F8A2
:104AA800F00574E7012384F81231D5E6022380F873
:104AB800123180F81011FFF757FE2046FFF788FEE5
:104AC800CAE608236CE7082367E700BF580E0020F2
:104AD8004C0E0020500E0020800D002038B590F8B4
:104AE8001231032B04460DD10B79012B0D4609D841
:104AF800D0F8E4359B689847EB8873B92046FFF7F0
:104B080067FE0AE080212046FEF7EAFB00212046E6
:104B1800FEF7E6FB2046FEF729F9002038BD00BF66
:104B280038B50C468A886378012B0546D1B204D083
:104B3800032B32D0A3B1002038BD90F81231022BDC
:104B480012D0032B40D080212846FEF7C9FB002154
:104B58002846FEF7C5FB2846FEF708F9002038BDB1
:104B680090F81231022B04D14A06E4D0FEF7B8FBC4
:104B7800E1E7032BE7D113062ED401EB810100EB0B
:104B8800C10191F876338BB31A4B01221A60194987
:104B980002222846FFF7F0FDCDE790F81231022BEC
:104BA800E2D0032BCFD163881BB94A0601D0FEF7A8
:104BB80097FBD5F8E43521469B6828469847284650
:104BC800FFF706FE002038BD6388002BB3D14B06E3
:104BD800F5D0FEF7A5FBECE701F07F0101EB8101C1
:104BE80000EBC10191F81E31002BCDD1014B002201
:104BF8001A60CCE7540E0020B0F8CC350B8090F842
:104C0800CFC590F8CE3503EB0C234B8090F8D1C577
:104C180090F8D03503EB0C238B8090F8D3C590F82F
:104C2800D23503EB0C239BB20122CB80C0F8403174
:104C380080F81121704700BF10B580210446FEF7A7
:104C48004FFB20460021FEF74BFB2046BDE81040F5
:104C5800FEF78CB818B3037830B40BB30446C0F130
:104C6800010C04EB0C0314F8015FDBB2002DF8D142
:104C780001335B00DCB2138003230C704B700478A3
:104C88005CB1022300255A1CD2B2CC548D5410F8C2
:104C9800014F0233DBB2002CF5D130BC70477047AE
:104CA80002242346E7E700BF034B40F0BF6040F40F
:104CB8000030D860704700BF00ED00E0C37823B330
:104CC800184B90F801C0D96882780078C943C1F3BD
:104CD8000221C1F10403DBB20CFA03FC0F230B41E0
:104CE8005FFA8CFC1049134043EA0C031B0101EBEB
:104CF800000CDBB242098CF8003300F01F000123DE
:104D080003FA00F041F822007047037806485A0970
:104D1800012103F01F03203201FA03F340F8223087
:104D2800704700BF00ED00E000E100E030B40A4C3D
:104D380040F6FE722368824023EA0202D1E9003578
:104D48002B438D68C9682B430B4303FA00F01043CB
:104D5800206030BC704700BF0074004039B1084A79
:104D68000123116803FA00F00843106070470449F2
:104D780001220B6802FA00F023EA0000086070477D
:104D88000074004082B0064B002201920193019BFF
:104D9800083303440193019B196002B0704700BFB8
:104DA8000074004002683649002310B422F0010262
:104DB800212488420260036043608360C36003610A
:104DC800446138D02F4B98422ED02F4B98423CD07C
:104DD8002E4B984240D02E4B984232D02D4B9842C1
:104DE80041D02D4B984246D02C4B984217D02C4B93
:104DF80098423CD02B4B984216D02B4B984224D04B
:104E08002A4B984228D02A4B98421AD0294B9842CC
:104E180029D0294B98422ED0284B984208D14FF0E0
:104E28003D5243F8AC2C03E04FF4746243F8202C55
:104E38005DF8044B7047224B5DF8044B3D229A60A5
:104E48007047204A43F8642CF2E74FF474125DF877
:104E5800044B43F8382C70474FF074625DF8044BEC
:104E680043F8502C7047184A43F87C2CE0E73D2261
:104E780043F8082CDCE7154A43F8942CD8E700BF20
:104E880010600240286002404060024058600240C2
:104E98007060024088600240A0600240B860024032
:104EA8001064024028640240406402405864024092
:104EB8007064024088640240A0640240B864024002
:104EC800006002403D000020400F002000003D200F
:104ED8000B684A6930B4CC68056823431343D1E9A9
:104EE800064223431343D1E9084223438C6A134300
:104EF8004A6B234313430C4C8A6B2C4013432343C4
:104F0800CA6A036043690C6B23F0070C42EA040386
:104F180043EA0C030C694361D1E9012344608260D0
:104F280030BCC360704700BF3F801CF0036819B1F4
:104F380043F001030360704723F0010303607047E7
:104F4800036822B143F4002303600161704723F42E
:104F58000023036001617047036819B143F480239B
:104F68000360704723F4802303607047006800F0F3
:104F78000100704710B40A4A0A4C0B4BA04288BF84
:104F880013468A004CBF586818685DF8044B0840FF
:104F980020F0F02020F08210003818BF0120704760
:104FA800006402400F6402400060024010B4094BE4
:104FB800094C0A4AA04288BF134611F0005F21F04D
:104FC800F02121F082115DF8044B14BFD96099607B
:104FD800704700BF006002400F6402400064024056
:104FE8000B060CD54369AAB143F0800380294361BD
:104FF8000FD0036801F01E01194301607047802932
:1050080007D0002AF5D1036801F01E0123EA010147
:105018000160704723F0800380294361F3D1704712
:10502800837943B31E4B01681A6822EA010210B45F
:105038001A605A6822EA01025A60027902F1804233
:1050480002F59E321468214311609968026821EACA
:1050580002019960D96821EA0201D96041791029D1
:1050680014D001F1804303F59E335DF8044B1968B1
:105078000A431A6070470379016803F1804303F516
:105088009E331A6822EA01021A60704799685DF82F
:10509800044B11439960D9680A43DA60704700BF2E
:1050A800003C0140014B5861704700BF003C014083
:1050B80000222DE9F04713460D684FF0010E032634
:1050C80004E00133102B02F1020239D00EFA03FC7E
:1050D8003CEA0504F5D1076806FA02F427EA040752
:1050E80007600F79D0F800A007FA02F9013F49EAF2
:1050F8000A09012FA046C0F800906FEA040411D8ED
:1051080087683C4084604C79876894403C4384605D
:10511800446824EA0C0444608C7947689C40A4B233
:105128003C434460C46824EA0804C460CC79C76876
:10513800944001333C43102BC46002F10202C5D1F4
:10514800BDE8F0870AB1018370474183704700BF0B
:10515800CB0800EB830001F00701036A89004FF0D8
:105168000F0C0CFA01FC23EA0C030362036A8A4061
:105178001A430262704700BF08B5174B984206D021
:10518800164B98420FD0164B984218D008BD0121F3
:105198004FF4001000F096F9BDE8084000214FF4E4
:1051A800001000F08FB901214FF4800000F08AF957
:1051B800BDE8084000214FF4800000F083B90121C8
:1051C8004FF4000000F07EF9BDE8084000214FF4DC
:1051D800000000F077B900BF0054004000580040BC
:1051E800005C004070B5868884B0044668460D4669
:1051F80026F03F0600F0EEF802992F4A3604A2FB8B
:105208000132360C46EA9246A68023882B4E23F0BC
:1052180001031B041B0C23802B68B3424FEA924006
:1052280023D802465B00B1FBF3F39BB20132042B97
:1052380038BF04232284A3832288A988288992B2AC
:1052480042F00102228023886A8923F4816323F0D3
:10525800020311431B04AA891B0C02430B439BB294
:1052680092B22380228104B070BDEE884BF6FF72A3
:1052780096421AD003EB830303EB8303B1FBF3F3EA
:105288009BB243F48043C3F30B020AB943F0010312
:105298004FF4967202FB00F0094AA2FB0020800935
:1052A800013043F400432084C5E703EB4303B1FB1B
:1052B800F3F39BB2E7E700BF83DE1B43A086010040
:1052C800D34D6210038821B19BB243F001030380E0
:1052D800704723F001031B041B0C0380704700BFB9
:1052E800038821B19BB243F480730380704723F491
:1052F80080731B041B0C0380704700BF038821B117
:105308009BB243F400730380704723F400731B04BB
:105318001B0C0380704700BF22B141F0010189B224
:105328000182704701F0FE0189B20182704700BF17
:10533800038821B19BB243F480630380704723F450
:1053480080631B041B0C0380704700BF01827047F9
:10535800008AC0B2704700BF838A008B9BB243EAC1
:1053680000430B4023F07F43581AB0FA80F04009FD
:10537800704700BF82B000230A0F00930193019089
:105388000092009B21F07F4153B1019B143301939C
:10539800019B1B680B4214BF0120002002B070471C
:1053A800019B1833090C0193F2E700BFC94389B286
:1053B80081827047034B090741EA8011C3F88410C2
:1053C800704700BF00380240014B9866704700BF25
:1053D800000047421F4A936803F00C03042B10B4E3
:1053E8001BD0082B1CD01C4B03601A4A1B4994681D
:1053F800C4F303140C5DE34043609468C4F382244F
:105408000C5D23FA04F4846092685DF8044BC2F3DF
:1054180042328A5CD340C3607047114B0360E4E7B3
:105428005368516813F4800F01F03F01536814BFAB
:105438000B4A094AB2FBF1F1064A5268C2F301422B
:10544800C3F38813013201FB03F35200B3FBF2F3F9
:105458000360CAE7003802400024F4005804002022
:1054680000127A00044A136B11B118431063704795
:1054780023EA00001063704700380240044A536B67
:1054880011B118435063704723EA00005063704716
:1054980000380240044A136C11B118431064704775
:1054A80023EA00001064704700380240044A536C35
:1054B80011B118435064704723EA000050647047E4
:1054C80000380240044A136A11B118431062704749
:1054D80023EA00001062704700380240044A536A09
:1054E80011B118435062704723EA000050627047B8
:1054F8000038024008B5174B984206D0164B984220
:105508000FD0164B984218D008BD01214FF4805097
:10551800FFF7E4FFBDE8084000214FF48050FFF793
:10552800DDBF01214FF48040FFF7CCFFBDE8084004
:1055380000214FF48040FFF7C5BF01214FF4004020
:10554800FFF7C0FFBDE8084000214FF40040FFF717
:10555800B9BF00BF0030014000380040003C0040A7
:10556800838B23F47B6323F00F031B0402221B0CA1
:105578002DE9F04183838D680284B0F81CC0B1F82E
:1055880004E095421FFA8CFC4ED0294B9A68BEF174
:10559800000F14BF40272027120240D4244ACC8889
:1055A800D2F88460D2F884305268B4F5007FC6F32C
:1055B8008816C3F3027302F03F081E4AB2FBF8F2E2
:1055C80006FB02F2B2FBF3F20CBF120AB2FBF7F2CF
:1055D80002EB82025300184AB3FBF5F305339BB282
:1055E800A2FB03231D09AA1EC3F3C003FD2A94BF0F
:1055F80045EA0323022323434A8803840B88134381
:105608008A894EEA030E4EEA020E4CEA0E0C1FFA85
:105618008CFC4CF4006CA0F81CC0BDE8F0819A68C2
:1056280022F400029A60B9E7CC882B46E3E700BF72
:105638000038024000127A00CDCCCCCC838B21B14B
:105648009BB243F480638383704723F480631B0415
:105658001B0C8383704700BF8181704783889BB28E
:1056680012B119438180704723EA01018180704794
:10567800090901238B409BB222B1828892B213435D
:1056880083807047828892B222EA0303838070473E
:105698000389194214BF01200020704701F0FC0360
:1056A80003F1804303F59C3301F003019A688900F4
:1056B8004FF00F0C0CFA01FC22EA0C029A609A686F
:0856C800884002439A6070471C
:1056D0005445204E5049000053544D33322041551B
:1056E00044494F2053747265616D696E6720696E1D
:1056F000204853204D6F6465000000005445204E43
:1057000050492031323400003030303030303030C9
:10571000303334460000000030303030303030302C
:105720003033344500000000415544494F20436F59
:105730006E66696700000000415544494F20496E7C
:10574000746572666163650008000000080000006F
:105750000800000008000000001000200040008049
:1057600000000000001C15310F2B24400A261F3BAF
:1057700019352E4A06221B3715312A46102C254191
:105780001F3B3450031F1834122E27430D29223E8D
:105790001C38314D09251E3A18342D49132F284441
:1057A000223E3753011D1632102C25410B27203C79
:1057B0001A362F4B07231C3816322B47112D264241
:1057C000203C355104201935132F28440E2A233F3D
:1057D0001D39324E0A261F3B19352E4A14302945F1
:1057E000233F3854001C15310F2B24400A261F3B41
:1057F00019352E4A06221B3715312A46102C254111
:105800001F3B3450031F1834122E27430D29223E0C
:105810001C38314D09251E3A18342D49132F2844C0
:10582000223E3753011D1632102C25410B27203CF8
:105830001A362F4B07231C3816322B47112D2642C0
:10584000203C355104201935132F28440E2A233FBC
:105850001D39324E0A261F3B19352E4A1430294570
:10586000233F38540012152717292C3E182A2D3FA4
:105870002F414456182A2D3F2F4144563042455758
:1058800047595C6E17292C3E2E4043552F414456F4
:1058900046585B6D2F41445646585B6D47595C6EC8
:1058A0005E70738515272A3C2C3E41532D3F425490
:1058B0004456596B2D3F42544456596B45575A6CC8
:1058C0005C6E71832C3E41534355586A4456596B64
:1058D0005B6D70824456596B5B6D70825C6E718338
:1058E0007385889A12242739293B3E502A3C3F5120
:1058F000415356682A3C3F514153566842545769B8
:10590000596B6E80293B3E50405255674153566853
:10591000586A6D7F41535668586A6D7F596B6E8027
:105920007082859727393C4E3E5053653F515466EF
:1059300056686B7D3F51546656686B7D57696C7E27
:105940006E8083953E50536555676A7C56686B7DC3
:105950006D7F829456686B7D6D7F82946E80839597
:1059600085979AAC000001010303040406060707AB
:1059700009090A0A0A0A0B0B0D0D0E0E101011115F
:10598000131314140F0F10101212131315151616EB
:105990001818191919191A1A1C1C1D1D1F1F20204F
:1059A0002222232315151616181819191B1B1C1C47
:1059B0001E1E1F1F1F1F20202222232325252626CF
:1059C0002828292924242525272728282A2A2B2B5B
:1059D0002D2D2E2E2E2E2F2F3131323234343535BF
:1059E000373738381C1C1D1D1F1F2020222223235F
:1059F000252526262626272729292A2A2C2C2D2D1F
:105A00002F2F30302B2B2C2C2E2E2F2F31313232AA
:105A10003434353535353636383839393B3B3C3C0E
:105A20003E3E3F3F31313232343435353737383806
:105A30003A3A3B3B3B3B3C3C3E3E3F3F414142428E
:105A4000444445454040414143434444464647471A
:105A500049494A4A4A4A4B4B4D4D4E4E505051517E
:105A60005353545412010002000000408204305786
:105A7000000201020301000004030904451C0008A0
:105A8000511C00085D1C0008791C0008A11C0008BE
:105A9000C91C0008E51C0008011D0008051D0008C0
:105AA0000D1D0008111D0008151D0008191D000816
:105AB000091D00080100000091390008853900081F
:105AC0009D3800080000000091380008593800088F
